{
  "_format": "hh-sol-artifact-1",
  "contractName": "NFTMarketplace",
  "sourceName": "contracts/NFTMarketplace.sol",
  "abi": [
    {
      "inputs": [],
      "stateMutability": "nonpayable",
      "type": "constructor"
    },
    {
      "anonymous": false,
      "inputs": [
        {
          "indexed": true,
          "internalType": "address",
          "name": "owner",
          "type": "address"
        },
        {
          "indexed": true,
          "internalType": "address",
          "name": "approved",
          "type": "address"
        },
        {
          "indexed": true,
          "internalType": "uint256",
          "name": "tokenId",
          "type": "uint256"
        }
      ],
      "name": "Approval",
      "type": "event"
    },
    {
      "anonymous": false,
      "inputs": [
        {
          "indexed": true,
          "internalType": "address",
          "name": "owner",
          "type": "address"
        },
        {
          "indexed": true,
          "internalType": "address",
          "name": "operator",
          "type": "address"
        },
        {
          "indexed": false,
          "internalType": "bool",
          "name": "approved",
          "type": "bool"
        }
      ],
      "name": "ApprovalForAll",
      "type": "event"
    },
    {
      "anonymous": false,
      "inputs": [
        {
          "indexed": false,
          "internalType": "uint256",
          "name": "_fromTokenId",
          "type": "uint256"
        },
        {
          "indexed": false,
          "internalType": "uint256",
          "name": "_toTokenId",
          "type": "uint256"
        }
      ],
      "name": "BatchMetadataUpdate",
      "type": "event"
    },
    {
      "anonymous": false,
      "inputs": [
        {
          "indexed": false,
          "internalType": "uint256",
          "name": "_tokenId",
          "type": "uint256"
        }
      ],
      "name": "MetadataUpdate",
      "type": "event"
    },
    {
      "anonymous": false,
      "inputs": [
        {
          "indexed": true,
          "internalType": "uint256",
          "name": "tokenId",
          "type": "uint256"
        },
        {
          "indexed": true,
          "internalType": "address",
          "name": "creator",
          "type": "address"
        }
      ],
      "name": "NFTCreated",
      "type": "event"
    },
    {
      "anonymous": false,
      "inputs": [
        {
          "indexed": true,
          "internalType": "uint256",
          "name": "tokenId",
          "type": "uint256"
        },
        {
          "indexed": true,
          "internalType": "address",
          "name": "seller",
          "type": "address"
        },
        {
          "indexed": false,
          "internalType": "uint256",
          "name": "price",
          "type": "uint256"
        }
      ],
      "name": "NFTListed",
      "type": "event"
    },
    {
      "anonymous": false,
      "inputs": [
        {
          "indexed": true,
          "internalType": "uint256",
          "name": "tokenId",
          "type": "uint256"
        },
        {
          "indexed": false,
          "internalType": "uint256",
          "name": "newPrice",
          "type": "uint256"
        }
      ],
      "name": "NFTListingUpdated",
      "type": "event"
    },
    {
      "anonymous": false,
      "inputs": [
        {
          "indexed": true,
          "internalType": "uint256",
          "name": "tokenId",
          "type": "uint256"
        },
        {
          "indexed": true,
          "internalType": "address",
          "name": "buyer",
          "type": "address"
        },
        {
          "indexed": false,
          "internalType": "uint256",
          "name": "price",
          "type": "uint256"
        },
        {
          "indexed": false,
          "internalType": "uint256",
          "name": "fee",
          "type": "uint256"
        }
      ],
      "name": "NFTSale",
      "type": "event"
    },
    {
      "anonymous": false,
      "inputs": [
        {
          "indexed": true,
          "internalType": "uint256",
          "name": "tokenId",
          "type": "uint256"
        },
        {
          "indexed": true,
          "internalType": "address",
          "name": "seller",
          "type": "address"
        }
      ],
      "name": "NFTSaleCancelled",
      "type": "event"
    },
    {
      "anonymous": false,
      "inputs": [
        {
          "indexed": true,
          "internalType": "address",
          "name": "previousOwner",
          "type": "address"
        },
        {
          "indexed": true,
          "internalType": "address",
          "name": "newOwner",
          "type": "address"
        }
      ],
      "name": "OwnershipTransferred",
      "type": "event"
    },
    {
      "anonymous": false,
      "inputs": [
        {
          "indexed": true,
          "internalType": "address",
          "name": "from",
          "type": "address"
        },
        {
          "indexed": true,
          "internalType": "address",
          "name": "to",
          "type": "address"
        },
        {
          "indexed": true,
          "internalType": "uint256",
          "name": "tokenId",
          "type": "uint256"
        }
      ],
      "name": "Transfer",
      "type": "event"
    },
    {
      "inputs": [
        {
          "internalType": "address",
          "name": "to",
          "type": "address"
        },
        {
          "internalType": "uint256",
          "name": "tokenId",
          "type": "uint256"
        }
      ],
      "name": "approve",
      "outputs": [],
      "stateMutability": "nonpayable",
      "type": "function"
    },
    {
      "inputs": [
        {
          "internalType": "address",
          "name": "owner",
          "type": "address"
        }
      ],
      "name": "balanceOf",
      "outputs": [
        {
          "internalType": "uint256",
          "name": "",
          "type": "uint256"
        }
      ],
      "stateMutability": "view",
      "type": "function"
    },
    {
      "inputs": [
        {
          "internalType": "uint256",
          "name": "tokenId",
          "type": "uint256"
        }
      ],
      "name": "buyNFT",
      "outputs": [],
      "stateMutability": "payable",
      "type": "function"
    },
    {
      "inputs": [
        {
          "internalType": "uint256",
          "name": "tokenId",
          "type": "uint256"
        }
      ],
      "name": "cancelListing",
      "outputs": [],
      "stateMutability": "nonpayable",
      "type": "function"
    },
    {
      "inputs": [
        {
          "internalType": "string",
          "name": "tokenURI",
          "type": "string"
        },
        {
          "internalType": "string",
          "name": "name_",
          "type": "string"
        },
        {
          "internalType": "string",
          "name": "description",
          "type": "string"
        },
        {
          "internalType": "string",
          "name": "mediaURI",
          "type": "string"
        },
        {
          "internalType": "uint256",
          "name": "price",
          "type": "uint256"
        }
      ],
      "name": "createNFT",
      "outputs": [
        {
          "internalType": "uint256",
          "name": "",
          "type": "uint256"
        }
      ],
      "stateMutability": "nonpayable",
      "type": "function"
    },
    {
      "inputs": [],
      "name": "feeCollected",
      "outputs": [
        {
          "internalType": "uint256",
          "name": "",
          "type": "uint256"
        }
      ],
      "stateMutability": "view",
      "type": "function"
    },
    {
      "inputs": [],
      "name": "feePercentage",
      "outputs": [
        {
          "internalType": "uint256",
          "name": "",
          "type": "uint256"
        }
      ],
      "stateMutability": "view",
      "type": "function"
    },
    {
      "inputs": [],
      "name": "getActiveListings",
      "outputs": [
        {
          "components": [
            {
              "internalType": "uint256",
              "name": "tokenId",
              "type": "uint256"
            },
            {
              "internalType": "uint256",
              "name": "price",
              "type": "uint256"
            },
            {
              "internalType": "address",
              "name": "seller",
              "type": "address"
            },
            {
              "internalType": "bool",
              "name": "isListed",
              "type": "bool"
            }
          ],
          "internalType": "struct NFTMarketplace.Listing[]",
          "name": "",
          "type": "tuple[]"
        }
      ],
      "stateMutability": "view",
      "type": "function"
    },
    {
      "inputs": [
        {
          "internalType": "uint256",
          "name": "tokenId",
          "type": "uint256"
        }
      ],
      "name": "getApproved",
      "outputs": [
        {
          "internalType": "address",
          "name": "",
          "type": "address"
        }
      ],
      "stateMutability": "view",
      "type": "function"
    },
    {
      "inputs": [
        {
          "internalType": "uint256",
          "name": "tokenId",
          "type": "uint256"
        }
      ],
      "name": "getNFT",
      "outputs": [
        {
          "components": [
            {
              "internalType": "string",
              "name": "name",
              "type": "string"
            },
            {
              "internalType": "string",
              "name": "description",
              "type": "string"
            },
            {
              "internalType": "string",
              "name": "mediaURI",
              "type": "string"
            }
          ],
          "internalType": "struct NFTMarketplace.NFTMetadata",
          "name": "",
          "type": "tuple"
        },
        {
          "components": [
            {
              "internalType": "uint256",
              "name": "tokenId",
              "type": "uint256"
            },
            {
              "internalType": "uint256",
              "name": "price",
              "type": "uint256"
            },
            {
              "internalType": "address",
              "name": "seller",
              "type": "address"
            },
            {
              "internalType": "bool",
              "name": "isListed",
              "type": "bool"
            }
          ],
          "internalType": "struct NFTMarketplace.Listing",
          "name": "",
          "type": "tuple"
        }
      ],
      "stateMutability": "view",
      "type": "function"
    },
    {
      "inputs": [
        {
          "internalType": "address",
          "name": "owner",
          "type": "address"
        },
        {
          "internalType": "address",
          "name": "operator",
          "type": "address"
        }
      ],
      "name": "isApprovedForAll",
      "outputs": [
        {
          "internalType": "bool",
          "name": "",
          "type": "bool"
        }
      ],
      "stateMutability": "view",
      "type": "function"
    },
    {
      "inputs": [
        {
          "internalType": "uint256",
          "name": "tokenId",
          "type": "uint256"
        },
        {
          "internalType": "uint256",
          "name": "price",
          "type": "uint256"
        }
      ],
      "name": "listNFT",
      "outputs": [],
      "stateMutability": "nonpayable",
      "type": "function"
    },
    {
      "inputs": [
        {
          "internalType": "uint256",
          "name": "",
          "type": "uint256"
        }
      ],
      "name": "listings",
      "outputs": [
        {
          "internalType": "uint256",
          "name": "tokenId",
          "type": "uint256"
        },
        {
          "internalType": "uint256",
          "name": "price",
          "type": "uint256"
        },
        {
          "internalType": "address",
          "name": "seller",
          "type": "address"
        },
        {
          "internalType": "bool",
          "name": "isListed",
          "type": "bool"
        }
      ],
      "stateMutability": "view",
      "type": "function"
    },
    {
      "inputs": [],
      "name": "name",
      "outputs": [
        {
          "internalType": "string",
          "name": "",
          "type": "string"
        }
      ],
      "stateMutability": "view",
      "type": "function"
    },
    {
      "inputs": [
        {
          "internalType": "uint256",
          "name": "",
          "type": "uint256"
        }
      ],
      "name": "nftMetadata",
      "outputs": [
        {
          "internalType": "string",
          "name": "name",
          "type": "string"
        },
        {
          "internalType": "string",
          "name": "description",
          "type": "string"
        },
        {
          "internalType": "string",
          "name": "mediaURI",
          "type": "string"
        }
      ],
      "stateMutability": "view",
      "type": "function"
    },
    {
      "inputs": [],
      "name": "owner",
      "outputs": [
        {
          "internalType": "address",
          "name": "",
          "type": "address"
        }
      ],
      "stateMutability": "view",
      "type": "function"
    },
    {
      "inputs": [
        {
          "internalType": "uint256",
          "name": "tokenId",
          "type": "uint256"
        }
      ],
      "name": "ownerOf",
      "outputs": [
        {
          "internalType": "address",
          "name": "",
          "type": "address"
        }
      ],
      "stateMutability": "view",
      "type": "function"
    },
    {
      "inputs": [],
      "name": "renounceOwnership",
      "outputs": [],
      "stateMutability": "nonpayable",
      "type": "function"
    },
    {
      "inputs": [
        {
          "internalType": "address",
          "name": "from",
          "type": "address"
        },
        {
          "internalType": "address",
          "name": "to",
          "type": "address"
        },
        {
          "internalType": "uint256",
          "name": "tokenId",
          "type": "uint256"
        }
      ],
      "name": "safeTransferFrom",
      "outputs": [],
      "stateMutability": "nonpayable",
      "type": "function"
    },
    {
      "inputs": [
        {
          "internalType": "address",
          "name": "from",
          "type": "address"
        },
        {
          "internalType": "address",
          "name": "to",
          "type": "address"
        },
        {
          "internalType": "uint256",
          "name": "tokenId",
          "type": "uint256"
        },
        {
          "internalType": "bytes",
          "name": "data",
          "type": "bytes"
        }
      ],
      "name": "safeTransferFrom",
      "outputs": [],
      "stateMutability": "nonpayable",
      "type": "function"
    },
    {
      "inputs": [
        {
          "internalType": "address",
          "name": "operator",
          "type": "address"
        },
        {
          "internalType": "bool",
          "name": "approved",
          "type": "bool"
        }
      ],
      "name": "setApprovalForAll",
      "outputs": [],
      "stateMutability": "nonpayable",
      "type": "function"
    },
    {
      "inputs": [
        {
          "internalType": "uint256",
          "name": "newFee",
          "type": "uint256"
        }
      ],
      "name": "setFeePercentage",
      "outputs": [],
      "stateMutability": "nonpayable",
      "type": "function"
    },
    {
      "inputs": [
        {
          "internalType": "bytes4",
          "name": "interfaceId",
          "type": "bytes4"
        }
      ],
      "name": "supportsInterface",
      "outputs": [
        {
          "internalType": "bool",
          "name": "",
          "type": "bool"
        }
      ],
      "stateMutability": "view",
      "type": "function"
    },
    {
      "inputs": [],
      "name": "symbol",
      "outputs": [
        {
          "internalType": "string",
          "name": "",
          "type": "string"
        }
      ],
      "stateMutability": "view",
      "type": "function"
    },
    {
      "inputs": [
        {
          "internalType": "uint256",
          "name": "tokenId",
          "type": "uint256"
        }
      ],
      "name": "tokenURI",
      "outputs": [
        {
          "internalType": "string",
          "name": "",
          "type": "string"
        }
      ],
      "stateMutability": "view",
      "type": "function"
    },
    {
      "inputs": [],
      "name": "totalSupply",
      "outputs": [
        {
          "internalType": "uint256",
          "name": "",
          "type": "uint256"
        }
      ],
      "stateMutability": "view",
      "type": "function"
    },
    {
      "inputs": [
        {
          "internalType": "address",
          "name": "from",
          "type": "address"
        },
        {
          "internalType": "address",
          "name": "to",
          "type": "address"
        },
        {
          "internalType": "uint256",
          "name": "tokenId",
          "type": "uint256"
        }
      ],
      "name": "transferFrom",
      "outputs": [],
      "stateMutability": "nonpayable",
      "type": "function"
    },
    {
      "inputs": [
        {
          "internalType": "address",
          "name": "newOwner",
          "type": "address"
        }
      ],
      "name": "transferOwnership",
      "outputs": [],
      "stateMutability": "nonpayable",
      "type": "function"
    },
    {
      "inputs": [
        {
          "internalType": "uint256",
          "name": "tokenId",
          "type": "uint256"
        },
        {
          "internalType": "uint256",
          "name": "newPrice",
          "type": "uint256"
        }
      ],
      "name": "updateListing",
      "outputs": [],
      "stateMutability": "nonpayable",
      "type": "function"
    },
    {
      "inputs": [],
      "name": "withdrawFees",
      "outputs": [],
      "stateMutability": "nonpayable",
      "type": "function"
    }
  ],
  "bytecode": "0x608060405260fa600a553480156200001657600080fd5b506040518060400160405280600581526020017f4d794e46540000000000000000000000000000000000000000000000000000008152506040518060400160405280600481526020017f4d4e46540000000000000000000000000000000000000000000000000000000081525081600090816200009491906200041f565b508060019081620000a691906200041f565b5050506001600781905550620000d1620000c5620000d760201b60201c565b620000df60201b60201c565b62000506565b600033905090565b6000600860009054906101000a900473ffffffffffffffffffffffffffffffffffffffff16905081600860006101000a81548173ffffffffffffffffffffffffffffffffffffffff021916908373ffffffffffffffffffffffffffffffffffffffff1602179055508173ffffffffffffffffffffffffffffffffffffffff168173ffffffffffffffffffffffffffffffffffffffff167f8be0079c531659141344cd1fd0a4f28419497f9722a3daafe3b4186f6b6457e060405160405180910390a35050565b600081519050919050565b7f4e487b7100000000000000000000000000000000000000000000000000000000600052604160045260246000fd5b7f4e487b7100000000000000000000000000000000000000000000000000000000600052602260045260246000fd5b600060028204905060018216806200022757607f821691505b6020821081036200023d576200023c620001df565b5b50919050565b60008190508160005260206000209050919050565b60006020601f8301049050919050565b600082821b905092915050565b600060088302620002a77fffffffffffffffffffffffffffffffffffffffffffffffffffffffffffffffff8262000268565b620002b3868362000268565b95508019841693508086168417925050509392505050565b6000819050919050565b6000819050919050565b600062000300620002fa620002f484620002cb565b620002d5565b620002cb565b9050919050565b6000819050919050565b6200031c83620002df565b620003346200032b8262000307565b84845462000275565b825550505050565b600090565b6200034b6200033c565b6200035881848462000311565b505050565b5b8181101562000380576200037460008262000341565b6001810190506200035e565b5050565b601f821115620003cf57620003998162000243565b620003a48462000258565b81016020851015620003b4578190505b620003cc620003c38562000258565b8301826200035d565b50505b505050565b600082821c905092915050565b6000620003f460001984600802620003d4565b1980831691505092915050565b60006200040f8383620003e1565b9150826002028217905092915050565b6200042a82620001a5565b67ffffffffffffffff811115620004465762000445620001b0565b5b6200045282546200020e565b6200045f82828562000384565b600060209050601f83116001811462000497576000841562000482578287015190505b6200048e858262000401565b865550620004fe565b601f198416620004a78662000243565b60005b82811015620004d157848901518255600182019150602085019450602081019050620004aa565b86831015620004f15784890151620004ed601f891682620003e1565b8355505b6001600288020188555050505b505050505050565b614eac80620005166000396000f3fe6080604052600436106101cd5760003560e01c80636ca7f95c116100f7578063a001ecdd11610095578063c87b56dd11610064578063c87b56dd14610668578063de74e57b146106a5578063e985e9c5146106e5578063f2fde38b14610722576101cd565b8063a001ecdd146105c2578063a22cb465146105ed578063ae06c1b714610616578063b88d4fde1461063f576101cd565b806387c35bc0116100d157806387c35bc0146105185780638da5cb5b1461054357806394383f141461056e57806395d89b4114610597576101cd565b80636ca7f95c1461049957806370a08231146104c4578063715018a614610501576101cd565b8063305a67a81161016f578063495410151161013e57806349541015146103c357806351ed828814610402578063576f7ea71461041e5780636352211e1461045c576101cd565b8063305a67a81461031d5780633309b9581461034657806342842e0e14610383578063476343ee146103ac576101cd565b8063081812fc116101ab578063081812fc14610263578063095ea7b3146102a057806318160ddd146102c957806323b872dd146102f4576101cd565b80630179ea88146101d257806301ffc9a7146101fb57806306fdde0314610238575b600080fd5b3480156101de57600080fd5b506101f960048036038101906101f491906132b9565b61074b565b005b34801561020757600080fd5b50610222600480360381019061021d9190613351565b6108ce565b60405161022f9190613399565b60405180910390f35b34801561024457600080fd5b5061024d61092f565b60405161025a9190613444565b60405180910390f35b34801561026f57600080fd5b5061028a60048036038101906102859190613466565b6109c1565b60405161029791906134d4565b60405180910390f35b3480156102ac57600080fd5b506102c760048036038101906102c2919061351b565b610a07565b005b3480156102d557600080fd5b506102de610b1e565b6040516102eb919061356a565b60405180910390f35b34801561030057600080fd5b5061031b60048036038101906103169190613585565b610b2f565b005b34801561032957600080fd5b50610344600480360381019061033f9190613466565b610b8f565b005b34801561035257600080fd5b5061036d6004803603810190610368919061370d565b610d63565b60405161037a919061356a565b60405180910390f35b34801561038f57600080fd5b506103aa60048036038101906103a59190613585565b610fb1565b005b3480156103b857600080fd5b506103c1610fd1565b005b3480156103cf57600080fd5b506103ea60048036038101906103e59190613466565b611039565b6040516103f9939291906137f8565b60405180910390f35b61041c60048036038101906104179190613466565b6111fb565b005b34801561042a57600080fd5b5061044560048036038101906104409190613466565b611546565b60405161045392919061396e565b60405180910390f35b34801561046857600080fd5b50610483600480360381019061047e9190613466565b6117dc565b60405161049091906134d4565b60405180910390f35b3480156104a557600080fd5b506104ae611862565b6040516104bb919061356a565b60405180910390f35b3480156104d057600080fd5b506104eb60048036038101906104e6919061399e565b611868565b6040516104f8919061356a565b60405180910390f35b34801561050d57600080fd5b5061051661191f565b005b34801561052457600080fd5b5061052d611933565b60405161053a9190613acf565b60405180910390f35b34801561054f57600080fd5b50610558611b1c565b60405161056591906134d4565b60405180910390f35b34801561057a57600080fd5b50610595600480360381019061059091906132b9565b611b46565b005b3480156105a357600080fd5b506105ac611d1d565b6040516105b99190613444565b60405180910390f35b3480156105ce57600080fd5b506105d7611daf565b6040516105e4919061356a565b60405180910390f35b3480156105f957600080fd5b50610614600480360381019061060f9190613b1d565b611db5565b005b34801561062257600080fd5b5061063d60048036038101906106389190613466565b611dcb565b005b34801561064b57600080fd5b5061066660048036038101906106619190613bfe565b611e22565b005b34801561067457600080fd5b5061068f600480360381019061068a9190613466565b611e84565b60405161069c9190613444565b60405180910390f35b3480156106b157600080fd5b506106cc60048036038101906106c79190613466565b611f96565b6040516106dc9493929190613c81565b60405180910390f35b3480156106f157600080fd5b5061070c60048036038101906107079190613cc6565b611ff3565b6040516107199190613399565b60405180910390f35b34801561072e57600080fd5b506107496004803603810190610744919061399e565b612087565b005b6000600c600084815260200190815260200160002090508060020160149054906101000a900460ff166107b3576040517f08c379a00000000000000000000000000000000000000000000000000000000081526004016107aa90613d52565b60405180910390fd5b3373ffffffffffffffffffffffffffffffffffffffff168160020160009054906101000a900473ffffffffffffffffffffffffffffffffffffffff1673ffffffffffffffffffffffffffffffffffffffff1614610845576040517f08c379a000000000000000000000000000000000000000000000000000000000815260040161083c90613dbe565b60405180910390fd5b60008211610888576040517f08c379a000000000000000000000000000000000000000000000000000000000815260040161087f90613e2a565b60405180910390fd5b818160010181905550827fcc3024a59032160a5776c3f7ab8f5e65aafa5dc2b822acf00ac230858c496fcc836040516108c1919061356a565b60405180910390a2505050565b6000634906490660e01b7bffffffffffffffffffffffffffffffffffffffffffffffffffffffff1916827bffffffffffffffffffffffffffffffffffffffffffffffffffffffff1916148061092857506109278261210a565b5b9050919050565b60606000805461093e90613e79565b80601f016020809104026020016040519081016040528092919081815260200182805461096a90613e79565b80156109b75780601f1061098c576101008083540402835291602001916109b7565b820191906000526020600020905b81548152906001019060200180831161099a57829003601f168201915b5050505050905090565b60006109cc826121ec565b6004600083815260200190815260200160002060009054906101000a900473ffffffffffffffffffffffffffffffffffffffff169050919050565b6000610a12826117dc565b90508073ffffffffffffffffffffffffffffffffffffffff168373ffffffffffffffffffffffffffffffffffffffff1603610a82576040517f08c379a0000000000000000000000000000000000000000000000000000000008152600401610a7990613f1c565b60405180910390fd5b8073ffffffffffffffffffffffffffffffffffffffff16610aa1612237565b73ffffffffffffffffffffffffffffffffffffffff161480610ad05750610acf81610aca612237565b611ff3565b5b610b0f576040517f08c379a0000000000000000000000000000000000000000000000000000000008152600401610b0690613fae565b60405180910390fd5b610b19838361223f565b505050565b6000610b2a60096122f8565b905090565b610b40610b3a612237565b82612306565b610b7f576040517f08c379a0000000000000000000000000000000000000000000000000000000008152600401610b7690614040565b60405180910390fd5b610b8a83838361239b565b505050565b6000600c600083815260200190815260200160002060405180608001604052908160008201548152602001600182015481526020016002820160009054906101000a900473ffffffffffffffffffffffffffffffffffffffff1673ffffffffffffffffffffffffffffffffffffffff1673ffffffffffffffffffffffffffffffffffffffff1681526020016002820160149054906101000a900460ff16151515158152505090508060600151610c7a576040517f08c379a0000000000000000000000000000000000000000000000000000000008152600401610c7190613d52565b60405180910390fd5b3373ffffffffffffffffffffffffffffffffffffffff16816040015173ffffffffffffffffffffffffffffffffffffffff1614610cec576040517f08c379a0000000000000000000000000000000000000000000000000000000008152600401610ce3906140ac565b60405180910390fd5b6000600c600084815260200190815260200160002060020160146101000a81548160ff0219169083151502179055503373ffffffffffffffffffffffffffffffffffffffff16827f5e86a35827477c5388f131ae2ae3671a03f959d1815796f76fbc695fd5adedea60405160405180910390a35050565b6000808211610da7576040517f08c379a0000000000000000000000000000000000000000000000000000000008152600401610d9e90613e2a565b60405180910390fd5b610db16009612694565b6000610dbd60096122f8565b9050610dc933826126aa565b610dd381886128c7565b604051806060016040528087815260200186815260200185815250600d60008381526020019081526020016000206000820151816000019081610e169190614278565b506020820151816001019081610e2c9190614278565b506040820151816002019081610e429190614278565b5090505060405180608001604052808281526020018481526020013373ffffffffffffffffffffffffffffffffffffffff16815260200160011515815250600c6000838152602001908152602001600020600082015181600001556020820151816001015560408201518160020160006101000a81548173ffffffffffffffffffffffffffffffffffffffff021916908373ffffffffffffffffffffffffffffffffffffffff16021790555060608201518160020160146101000a81548160ff0219169083151502179055509050503373ffffffffffffffffffffffffffffffffffffffff16817fbe4d5028ecb11dfb1cbc0c1dd7eed270db43c11a50da18fceb823c9af57a2a7860405160405180910390a33373ffffffffffffffffffffffffffffffffffffffff16817f5f9c03de076f5063cd3ebcfe8ef7aa8af378e4b35a83c77ba9777e97083879a285604051610f9c919061356a565b60405180910390a38091505095945050505050565b610fcc83838360405180602001604052806000815250611e22565b505050565b610fd961296b565b6000600b5490506000600b81905550610ff0611b1c565b73ffffffffffffffffffffffffffffffffffffffff166108fc829081150290604051600060405180830381858888f19350505050158015611035573d6000803e3d6000fd5b5050565b600d60205280600052604060002060009150905080600001805461105c90613e79565b80601f016020809104026020016040519081016040528092919081815260200182805461108890613e79565b80156110d55780601f106110aa576101008083540402835291602001916110d5565b820191906000526020600020905b8154815290600101906020018083116110b857829003601f168201915b5050505050908060010180546110ea90613e79565b80601f016020809104026020016040519081016040528092919081815260200182805461111690613e79565b80156111635780601f1061113857610100808354040283529160200191611163565b820191906000526020600020905b81548152906001019060200180831161114657829003601f168201915b50505050509080600201805461117890613e79565b80601f01602080910402602001604051908101604052809291908181526020018280546111a490613e79565b80156111f15780601f106111c6576101008083540402835291602001916111f1565b820191906000526020600020905b8154815290600101906020018083116111d457829003601f168201915b5050505050905083565b6112036129e9565b6000600c600083815260200190815260200160002060405180608001604052908160008201548152602001600182015481526020016002820160009054906101000a900473ffffffffffffffffffffffffffffffffffffffff1673ffffffffffffffffffffffffffffffffffffffff1673ffffffffffffffffffffffffffffffffffffffff1681526020016002820160149054906101000a900460ff161515151581525050905080606001516112ee576040517f08c379a00000000000000000000000000000000000000000000000000000000081526004016112e590614396565b60405180910390fd5b8060200151341015611335576040517f08c379a000000000000000000000000000000000000000000000000000000000815260040161132c90614402565b60405180910390fd5b3373ffffffffffffffffffffffffffffffffffffffff16816040015173ffffffffffffffffffffffffffffffffffffffff16036113a7576040517f08c379a000000000000000000000000000000000000000000000000000000000815260040161139e9061446e565b60405180910390fd5b6000612710600a5483602001516113be91906144bd565b6113c8919061452e565b905060008183602001516113dc919061455f565b90506113ed8360400151338661239b565b826040015173ffffffffffffffffffffffffffffffffffffffff166108fc829081150290604051600060405180830381858888f19350505050158015611437573d6000803e3d6000fd5b5081600b600082825461144a9190614593565b9250508190555082602001513411156114b4573373ffffffffffffffffffffffffffffffffffffffff166108fc846020015134611487919061455f565b9081150290604051600060405180830381858888f193505050501580156114b2573d6000803e3d6000fd5b505b6000600c600086815260200190815260200160002060020160146101000a81548160ff0219169083151502179055503373ffffffffffffffffffffffffffffffffffffffff16847f041bfe3082d481c8f62f6ed145f1d8cbec0daebcb4d750ae5c42a51946551d138560200151856040516115309291906145c7565b60405180910390a3505050611543612a38565b50565b61154e61320e565b61155661322f565b600d6000848152602001908152602001600020600c60008581526020019081526020016000208160405180606001604052908160008201805461159890613e79565b80601f01602080910402602001604051908101604052809291908181526020018280546115c490613e79565b80156116115780601f106115e657610100808354040283529160200191611611565b820191906000526020600020905b8154815290600101906020018083116115f457829003601f168201915b5050505050815260200160018201805461162a90613e79565b80601f016020809104026020016040519081016040528092919081815260200182805461165690613e79565b80156116a35780601f10611678576101008083540402835291602001916116a3565b820191906000526020600020905b81548152906001019060200180831161168657829003601f168201915b505050505081526020016002820180546116bc90613e79565b80601f01602080910402602001604051908101604052809291908181526020018280546116e890613e79565b80156117355780601f1061170a57610100808354040283529160200191611735565b820191906000526020600020905b81548152906001019060200180831161171857829003601f168201915b50505050508152505091508060405180608001604052908160008201548152602001600182015481526020016002820160009054906101000a900473ffffffffffffffffffffffffffffffffffffffff1673ffffffffffffffffffffffffffffffffffffffff1673ffffffffffffffffffffffffffffffffffffffff1681526020016002820160149054906101000a900460ff161515151581525050905091509150915091565b6000806117e883612a42565b9050600073ffffffffffffffffffffffffffffffffffffffff168173ffffffffffffffffffffffffffffffffffffffff1603611859576040517f08c379a00000000000000000000000000000000000000000000000000000000081526004016118509061463c565b60405180910390fd5b80915050919050565b600b5481565b60008073ffffffffffffffffffffffffffffffffffffffff168273ffffffffffffffffffffffffffffffffffffffff16036118d8576040517f08c379a00000000000000000000000000000000000000000000000000000000081526004016118cf906146ce565b60405180910390fd5b600360008373ffffffffffffffffffffffffffffffffffffffff1673ffffffffffffffffffffffffffffffffffffffff168152602001908152602001600020549050919050565b61192761296b565b6119316000612a7f565b565b6060600061194160096122f8565b9050600080600190505b82811161199d57600c600082815260200190815260200160002060020160149054906101000a900460ff161561198a578180611986906146ee565b9250505b8080611995906146ee565b91505061194b565b5060008167ffffffffffffffff8111156119ba576119b96135e2565b5b6040519080825280602002602001820160405280156119f357816020015b6119e061322f565b8152602001906001900390816119d85790505b509050600080600190505b848111611b1157600c600082815260200190815260200160002060020160149054906101000a900460ff1615611afe57600c600082815260200190815260200160002060405180608001604052908160008201548152602001600182015481526020016002820160009054906101000a900473ffffffffffffffffffffffffffffffffffffffff1673ffffffffffffffffffffffffffffffffffffffff1673ffffffffffffffffffffffffffffffffffffffff1681526020016002820160149054906101000a900460ff161515151581525050838381518110611ae457611ae3614736565b5b60200260200101819052508180611afa906146ee565b9250505b8080611b09906146ee565b9150506119fe565b508194505050505090565b6000600860009054906101000a900473ffffffffffffffffffffffffffffffffffffffff16905090565b3373ffffffffffffffffffffffffffffffffffffffff16611b66836117dc565b73ffffffffffffffffffffffffffffffffffffffff1614611bbc576040517f08c379a0000000000000000000000000000000000000000000000000000000008152600401611bb3906147b1565b60405180910390fd5b60008111611bff576040517f08c379a0000000000000000000000000000000000000000000000000000000008152600401611bf690613e2a565b60405180910390fd5b60405180608001604052808381526020018281526020013373ffffffffffffffffffffffffffffffffffffffff16815260200160011515815250600c6000848152602001908152602001600020600082015181600001556020820151816001015560408201518160020160006101000a81548173ffffffffffffffffffffffffffffffffffffffff021916908373ffffffffffffffffffffffffffffffffffffffff16021790555060608201518160020160146101000a81548160ff0219169083151502179055509050503373ffffffffffffffffffffffffffffffffffffffff16827f5f9c03de076f5063cd3ebcfe8ef7aa8af378e4b35a83c77ba9777e97083879a283604051611d11919061356a565b60405180910390a35050565b606060018054611d2c90613e79565b80601f0160208091040260200160405190810160405280929190818152602001828054611d5890613e79565b8015611da55780601f10611d7a57610100808354040283529160200191611da5565b820191906000526020600020905b815481529060010190602001808311611d8857829003601f168201915b5050505050905090565b600a5481565b611dc7611dc0612237565b8383612b45565b5050565b611dd361296b565b6103e8811115611e18576040517f08c379a0000000000000000000000000000000000000000000000000000000008152600401611e0f9061481d565b60405180910390fd5b80600a8190555050565b611e33611e2d612237565b83612306565b611e72576040517f08c379a0000000000000000000000000000000000000000000000000000000008152600401611e6990614040565b60405180910390fd5b611e7e84848484612cb1565b50505050565b6060611e8f826121ec565b6000600660008481526020019081526020016000208054611eaf90613e79565b80601f0160208091040260200160405190810160405280929190818152602001828054611edb90613e79565b8015611f285780601f10611efd57610100808354040283529160200191611f28565b820191906000526020600020905b815481529060010190602001808311611f0b57829003601f168201915b505050505090506000611f39612d0d565b90506000815103611f4e578192505050611f91565b600082511115611f83578082604051602001611f6b929190614879565b60405160208183030381529060405292505050611f91565b611f8c84612d24565b925050505b919050565b600c6020528060005260406000206000915090508060000154908060010154908060020160009054906101000a900473ffffffffffffffffffffffffffffffffffffffff16908060020160149054906101000a900460ff16905084565b6000600560008473ffffffffffffffffffffffffffffffffffffffff1673ffffffffffffffffffffffffffffffffffffffff16815260200190815260200160002060008373ffffffffffffffffffffffffffffffffffffffff1673ffffffffffffffffffffffffffffffffffffffff16815260200190815260200160002060009054906101000a900460ff16905092915050565b61208f61296b565b600073ffffffffffffffffffffffffffffffffffffffff168173ffffffffffffffffffffffffffffffffffffffff16036120fe576040517f08c379a00000000000000000000000000000000000000000000000000000000081526004016120f59061490f565b60405180910390fd5b61210781612a7f565b50565b60007f80ac58cd000000000000000000000000000000000000000000000000000000007bffffffffffffffffffffffffffffffffffffffffffffffffffffffff1916827bffffffffffffffffffffffffffffffffffffffffffffffffffffffff191614806121d557507f5b5e139f000000000000000000000000000000000000000000000000000000007bffffffffffffffffffffffffffffffffffffffffffffffffffffffff1916827bffffffffffffffffffffffffffffffffffffffffffffffffffffffff1916145b806121e557506121e482612d8c565b5b9050919050565b6121f581612df6565b612234576040517f08c379a000000000000000000000000000000000000000000000000000000000815260040161222b9061463c565b60405180910390fd5b50565b600033905090565b816004600083815260200190815260200160002060006101000a81548173ffffffffffffffffffffffffffffffffffffffff021916908373ffffffffffffffffffffffffffffffffffffffff160217905550808273ffffffffffffffffffffffffffffffffffffffff166122b2836117dc565b73ffffffffffffffffffffffffffffffffffffffff167f8c5be1e5ebec7d5bd14f71427d1e84f3dd0314c0f7b2291e5b200ac8c7c3b92560405160405180910390a45050565b600081600001549050919050565b600080612312836117dc565b90508073ffffffffffffffffffffffffffffffffffffffff168473ffffffffffffffffffffffffffffffffffffffff16148061235457506123538185611ff3565b5b8061239257508373ffffffffffffffffffffffffffffffffffffffff1661237a846109c1565b73ffffffffffffffffffffffffffffffffffffffff16145b91505092915050565b8273ffffffffffffffffffffffffffffffffffffffff166123bb826117dc565b73ffffffffffffffffffffffffffffffffffffffff1614612411576040517f08c379a0000000000000000000000000000000000000000000000000000000008152600401612408906149a1565b60405180910390fd5b600073ffffffffffffffffffffffffffffffffffffffff168273ffffffffffffffffffffffffffffffffffffffff1603612480576040517f08c379a000000000000000000000000000000000000000000000000000000000815260040161247790614a33565b60405180910390fd5b61248d8383836001612e37565b8273ffffffffffffffffffffffffffffffffffffffff166124ad826117dc565b73ffffffffffffffffffffffffffffffffffffffff1614612503576040517f08c379a00000000000000000000000000000000000000000000000000000000081526004016124fa906149a1565b60405180910390fd5b6004600082815260200190815260200160002060006101000a81549073ffffffffffffffffffffffffffffffffffffffff02191690556001600360008573ffffffffffffffffffffffffffffffffffffffff1673ffffffffffffffffffffffffffffffffffffffff168152602001908152602001600020600082825403925050819055506001600360008473ffffffffffffffffffffffffffffffffffffffff1673ffffffffffffffffffffffffffffffffffffffff16815260200190815260200160002060008282540192505081905550816002600083815260200190815260200160002060006101000a81548173ffffffffffffffffffffffffffffffffffffffff021916908373ffffffffffffffffffffffffffffffffffffffff160217905550808273ffffffffffffffffffffffffffffffffffffffff168473ffffffffffffffffffffffffffffffffffffffff167fddf252ad1be2c89b69c2b068fc378daa952ba7f163c4a11628f55a4df523b3ef60405160405180910390a461268f8383836001612e3d565b505050565b6001816000016000828254019250508190555050565b600073ffffffffffffffffffffffffffffffffffffffff168273ffffffffffffffffffffffffffffffffffffffff1603612719576040517f08c379a000000000000000000000000000000000000000000000000000000000815260040161271090614a9f565b60405180910390fd5b61272281612df6565b15612762576040517f08c379a000000000000000000000000000000000000000000000000000000000815260040161275990614b0b565b60405180910390fd5b612770600083836001612e37565b61277981612df6565b156127b9576040517f08c379a00000000000000000000000000000000000000000000000000000000081526004016127b090614b0b565b60405180910390fd5b6001600360008473ffffffffffffffffffffffffffffffffffffffff1673ffffffffffffffffffffffffffffffffffffffff16815260200190815260200160002060008282540192505081905550816002600083815260200190815260200160002060006101000a81548173ffffffffffffffffffffffffffffffffffffffff021916908373ffffffffffffffffffffffffffffffffffffffff160217905550808273ffffffffffffffffffffffffffffffffffffffff16600073ffffffffffffffffffffffffffffffffffffffff167fddf252ad1be2c89b69c2b068fc378daa952ba7f163c4a11628f55a4df523b3ef60405160405180910390a46128c3600083836001612e3d565b5050565b6128d082612df6565b61290f576040517f08c379a000000000000000000000000000000000000000000000000000000000815260040161290690614b9d565b60405180910390fd5b8060066000848152602001908152602001600020908161292f9190614278565b507ff8e1a15aba9398e019f0b49df1a4fde98ee17ae345cb5f6b5e2c27f5033e8ce78260405161295f919061356a565b60405180910390a15050565b612973612237565b73ffffffffffffffffffffffffffffffffffffffff16612991611b1c565b73ffffffffffffffffffffffffffffffffffffffff16146129e7576040517f08c379a00000000000000000000000000000000000000000000000000000000081526004016129de90614c09565b60405180910390fd5b565b600260075403612a2e576040517f08c379a0000000000000000000000000000000000000000000000000000000008152600401612a2590614c75565b60405180910390fd5b6002600781905550565b6001600781905550565b60006002600083815260200190815260200160002060009054906101000a900473ffffffffffffffffffffffffffffffffffffffff169050919050565b6000600860009054906101000a900473ffffffffffffffffffffffffffffffffffffffff16905081600860006101000a81548173ffffffffffffffffffffffffffffffffffffffff021916908373ffffffffffffffffffffffffffffffffffffffff1602179055508173ffffffffffffffffffffffffffffffffffffffff168173ffffffffffffffffffffffffffffffffffffffff167f8be0079c531659141344cd1fd0a4f28419497f9722a3daafe3b4186f6b6457e060405160405180910390a35050565b8173ffffffffffffffffffffffffffffffffffffffff168373ffffffffffffffffffffffffffffffffffffffff1603612bb3576040517f08c379a0000000000000000000000000000000000000000000000000000000008152600401612baa90614ce1565b60405180910390fd5b80600560008573ffffffffffffffffffffffffffffffffffffffff1673ffffffffffffffffffffffffffffffffffffffff16815260200190815260200160002060008473ffffffffffffffffffffffffffffffffffffffff1673ffffffffffffffffffffffffffffffffffffffff16815260200190815260200160002060006101000a81548160ff0219169083151502179055508173ffffffffffffffffffffffffffffffffffffffff168373ffffffffffffffffffffffffffffffffffffffff167f17307eab39ab6107e8899845ad3d59bd9653f200f220920489ca2b5937696c3183604051612ca49190613399565b60405180910390a3505050565b612cbc84848461239b565b612cc884848484612e43565b612d07576040517f08c379a0000000000000000000000000000000000000000000000000000000008152600401612cfe90614d73565b60405180910390fd5b50505050565b606060405180602001604052806000815250905090565b6060612d2f826121ec565b6000612d39612d0d565b90506000815111612d595760405180602001604052806000815250612d84565b80612d6384612fca565b604051602001612d74929190614879565b6040516020818303038152906040525b915050919050565b60007f01ffc9a7000000000000000000000000000000000000000000000000000000007bffffffffffffffffffffffffffffffffffffffffffffffffffffffff1916827bffffffffffffffffffffffffffffffffffffffffffffffffffffffff1916149050919050565b60008073ffffffffffffffffffffffffffffffffffffffff16612e1883612a42565b73ffffffffffffffffffffffffffffffffffffffff1614159050919050565b50505050565b50505050565b6000612e648473ffffffffffffffffffffffffffffffffffffffff16613098565b15612fbd578373ffffffffffffffffffffffffffffffffffffffff1663150b7a02612e8d612237565b8786866040518563ffffffff1660e01b8152600401612eaf9493929190614de8565b6020604051808303816000875af1925050508015612eeb57506040513d601f19601f82011682018060405250810190612ee89190614e49565b60015b612f6d573d8060008114612f1b576040519150601f19603f3d011682016040523d82523d6000602084013e612f20565b606091505b506000815103612f65576040517f08c379a0000000000000000000000000000000000000000000000000000000008152600401612f5c90614d73565b60405180910390fd5b805181602001fd5b63150b7a0260e01b7bffffffffffffffffffffffffffffffffffffffffffffffffffffffff1916817bffffffffffffffffffffffffffffffffffffffffffffffffffffffff191614915050612fc2565b600190505b949350505050565b606060006001612fd9846130bb565b01905060008167ffffffffffffffff811115612ff857612ff76135e2565b5b6040519080825280601f01601f19166020018201604052801561302a5781602001600182028036833780820191505090505b509050600082602001820190505b60011561308d578080600190039150507f3031323334353637383961626364656600000000000000000000000000000000600a86061a8153600a8581613081576130806144ff565b5b04945060008503613038575b819350505050919050565b6000808273ffffffffffffffffffffffffffffffffffffffff163b119050919050565b600080600090507a184f03e93ff9f4daa797ed6e38ed64bf6a1f0100000000000000008310613119577a184f03e93ff9f4daa797ed6e38ed64bf6a1f010000000000000000838161310f5761310e6144ff565b5b0492506040810190505b6d04ee2d6d415b85acef81000000008310613156576d04ee2d6d415b85acef8100000000838161314c5761314b6144ff565b5b0492506020810190505b662386f26fc10000831061318557662386f26fc10000838161317b5761317a6144ff565b5b0492506010810190505b6305f5e10083106131ae576305f5e10083816131a4576131a36144ff565b5b0492506008810190505b61271083106131d35761271083816131c9576131c86144ff565b5b0492506004810190505b606483106131f657606483816131ec576131eb6144ff565b5b0492506002810190505b600a8310613205576001810190505b80915050919050565b60405180606001604052806060815260200160608152602001606081525090565b60405180608001604052806000815260200160008152602001600073ffffffffffffffffffffffffffffffffffffffff1681526020016000151581525090565b6000604051905090565b600080fd5b600080fd5b6000819050919050565b61329681613283565b81146132a157600080fd5b50565b6000813590506132b38161328d565b92915050565b600080604083850312156132d0576132cf613279565b5b60006132de858286016132a4565b92505060206132ef858286016132a4565b9150509250929050565b60007fffffffff0000000000000000000000000000000000000000000000000000000082169050919050565b61332e816132f9565b811461333957600080fd5b50565b60008135905061334b81613325565b92915050565b60006020828403121561336757613366613279565b5b60006133758482850161333c565b91505092915050565b60008115159050919050565b6133938161337e565b82525050565b60006020820190506133ae600083018461338a565b92915050565b600081519050919050565b600082825260208201905092915050565b60005b838110156133ee5780820151818401526020810190506133d3565b60008484015250505050565b6000601f19601f8301169050919050565b6000613416826133b4565b61342081856133bf565b93506134308185602086016133d0565b613439816133fa565b840191505092915050565b6000602082019050818103600083015261345e818461340b565b905092915050565b60006020828403121561347c5761347b613279565b5b600061348a848285016132a4565b91505092915050565b600073ffffffffffffffffffffffffffffffffffffffff82169050919050565b60006134be82613493565b9050919050565b6134ce816134b3565b82525050565b60006020820190506134e960008301846134c5565b92915050565b6134f8816134b3565b811461350357600080fd5b50565b600081359050613515816134ef565b92915050565b6000806040838503121561353257613531613279565b5b600061354085828601613506565b9250506020613551858286016132a4565b9150509250929050565b61356481613283565b82525050565b600060208201905061357f600083018461355b565b92915050565b60008060006060848603121561359e5761359d613279565b5b60006135ac86828701613506565b93505060206135bd86828701613506565b92505060406135ce868287016132a4565b9150509250925092565b600080fd5b600080fd5b7f4e487b7100000000000000000000000000000000000000000000000000000000600052604160045260246000fd5b61361a826133fa565b810181811067ffffffffffffffff82111715613639576136386135e2565b5b80604052505050565b600061364c61326f565b90506136588282613611565b919050565b600067ffffffffffffffff821115613678576136776135e2565b5b613681826133fa565b9050602081019050919050565b82818337600083830152505050565b60006136b06136ab8461365d565b613642565b9050828152602081018484840111156136cc576136cb6135dd565b5b6136d784828561368e565b509392505050565b600082601f8301126136f4576136f36135d8565b5b813561370484826020860161369d565b91505092915050565b600080600080600060a0868803121561372957613728613279565b5b600086013567ffffffffffffffff8111156137475761374661327e565b5b613753888289016136df565b955050602086013567ffffffffffffffff8111156137745761377361327e565b5b613780888289016136df565b945050604086013567ffffffffffffffff8111156137a1576137a061327e565b5b6137ad888289016136df565b935050606086013567ffffffffffffffff8111156137ce576137cd61327e565b5b6137da888289016136df565b92505060806137eb888289016132a4565b9150509295509295909350565b60006060820190508181036000830152613812818661340b565b90508181036020830152613826818561340b565b9050818103604083015261383a818461340b565b9050949350505050565b600082825260208201905092915050565b6000613860826133b4565b61386a8185613844565b935061387a8185602086016133d0565b613883816133fa565b840191505092915050565b600060608301600083015184820360008601526138ab8282613855565b915050602083015184820360208601526138c58282613855565b915050604083015184820360408601526138df8282613855565b9150508091505092915050565b6138f581613283565b82525050565b613904816134b3565b82525050565b6139138161337e565b82525050565b60808201600082015161392f60008501826138ec565b50602082015161394260208501826138ec565b50604082015161395560408501826138fb565b506060820151613968606085018261390a565b50505050565b600060a0820190508181036000830152613988818561388e565b90506139976020830184613919565b9392505050565b6000602082840312156139b4576139b3613279565b5b60006139c284828501613506565b91505092915050565b600081519050919050565b600082825260208201905092915050565b6000819050602082019050919050565b608082016000820151613a0d60008501826138ec565b506020820151613a2060208501826138ec565b506040820151613a3360408501826138fb565b506060820151613a46606085018261390a565b50505050565b6000613a5883836139f7565b60808301905092915050565b6000602082019050919050565b6000613a7c826139cb565b613a8681856139d6565b9350613a91836139e7565b8060005b83811015613ac2578151613aa98882613a4c565b9750613ab483613a64565b925050600181019050613a95565b5085935050505092915050565b60006020820190508181036000830152613ae98184613a71565b905092915050565b613afa8161337e565b8114613b0557600080fd5b50565b600081359050613b1781613af1565b92915050565b60008060408385031215613b3457613b33613279565b5b6000613b4285828601613506565b9250506020613b5385828601613b08565b9150509250929050565b600067ffffffffffffffff821115613b7857613b776135e2565b5b613b81826133fa565b9050602081019050919050565b6000613ba1613b9c84613b5d565b613642565b905082815260208101848484011115613bbd57613bbc6135dd565b5b613bc884828561368e565b509392505050565b600082601f830112613be557613be46135d8565b5b8135613bf5848260208601613b8e565b91505092915050565b60008060008060808587031215613c1857613c17613279565b5b6000613c2687828801613506565b9450506020613c3787828801613506565b9350506040613c48878288016132a4565b925050606085013567ffffffffffffffff811115613c6957613c6861327e565b5b613c7587828801613bd0565b91505092959194509250565b6000608082019050613c96600083018761355b565b613ca3602083018661355b565b613cb060408301856134c5565b613cbd606083018461338a565b95945050505050565b60008060408385031215613cdd57613cdc613279565b5b6000613ceb85828601613506565b9250506020613cfc85828601613506565b9150509250929050565b7f4e4654206973206e6f74206c6973746564000000000000000000000000000000600082015250565b6000613d3c6011836133bf565b9150613d4782613d06565b602082019050919050565b60006020820190508181036000830152613d6b81613d2f565b9050919050565b7f4f6e6c792073656c6c65722063616e2075706461746500000000000000000000600082015250565b6000613da86016836133bf565b9150613db382613d72565b602082019050919050565b60006020820190508181036000830152613dd781613d9b565b9050919050565b7f5072696365206d7573742062652061626f7665207a65726f0000000000000000600082015250565b6000613e146018836133bf565b9150613e1f82613dde565b602082019050919050565b60006020820190508181036000830152613e4381613e07565b9050919050565b7f4e487b7100000000000000000000000000000000000000000000000000000000600052602260045260246000fd5b60006002820490506001821680613e9157607f821691505b602082108103613ea457613ea3613e4a565b5b50919050565b7f4552433732313a20617070726f76616c20746f2063757272656e74206f776e6560008201527f7200000000000000000000000000000000000000000000000000000000000000602082015250565b6000613f066021836133bf565b9150613f1182613eaa565b604082019050919050565b60006020820190508181036000830152613f3581613ef9565b9050919050565b7f4552433732313a20617070726f76652063616c6c6572206973206e6f7420746f60008201527f6b656e206f776e6572206f7220617070726f76656420666f7220616c6c000000602082015250565b6000613f98603d836133bf565b9150613fa382613f3c565b604082019050919050565b60006020820190508181036000830152613fc781613f8b565b9050919050565b7f4552433732313a2063616c6c6572206973206e6f7420746f6b656e206f776e6560008201527f72206f7220617070726f76656400000000000000000000000000000000000000602082015250565b600061402a602d836133bf565b915061403582613fce565b604082019050919050565b600060208201905081810360008301526140598161401d565b9050919050565b7f4f6e6c792073656c6c65722063616e2063616e63656c00000000000000000000600082015250565b60006140966016836133bf565b91506140a182614060565b602082019050919050565b600060208201905081810360008301526140c581614089565b9050919050565b60008190508160005260206000209050919050565b60006020601f8301049050919050565b600082821b905092915050565b60006008830261412e7fffffffffffffffffffffffffffffffffffffffffffffffffffffffffffffffff826140f1565b61413886836140f1565b95508019841693508086168417925050509392505050565b6000819050919050565b600061417561417061416b84613283565b614150565b613283565b9050919050565b6000819050919050565b61418f8361415a565b6141a361419b8261417c565b8484546140fe565b825550505050565b600090565b6141b86141ab565b6141c3818484614186565b505050565b5b818110156141e7576141dc6000826141b0565b6001810190506141c9565b5050565b601f82111561422c576141fd816140cc565b614206846140e1565b81016020851015614215578190505b614229614221856140e1565b8301826141c8565b50505b505050565b600082821c905092915050565b600061424f60001984600802614231565b1980831691505092915050565b6000614268838361423e565b9150826002028217905092915050565b614281826133b4565b67ffffffffffffffff81111561429a576142996135e2565b5b6142a48254613e79565b6142af8282856141eb565b600060209050601f8311600181146142e257600084156142d0578287015190505b6142da858261425c565b865550614342565b601f1984166142f0866140cc565b60005b82811015614318578489015182556001820191506020850194506020810190506142f3565b868310156143355784890151614331601f89168261423e565b8355505b6001600288020188555050505b505050505050565b7f4e4654206e6f74206c6973746564000000000000000000000000000000000000600082015250565b6000614380600e836133bf565b915061438b8261434a565b602082019050919050565b600060208201905081810360008301526143af81614373565b9050919050565b7f4e6f7420656e6f75676820455448000000000000000000000000000000000000600082015250565b60006143ec600e836133bf565b91506143f7826143b6565b602082019050919050565b6000602082019050818103600083015261441b816143df565b9050919050565b7f53656c6c65722063616e6e6f7420627579000000000000000000000000000000600082015250565b60006144586011836133bf565b915061446382614422565b602082019050919050565b600060208201905081810360008301526144878161444b565b9050919050565b7f4e487b7100000000000000000000000000000000000000000000000000000000600052601160045260246000fd5b60006144c882613283565b91506144d383613283565b92508282026144e181613283565b915082820484148315176144f8576144f761448e565b5b5092915050565b7f4e487b7100000000000000000000000000000000000000000000000000000000600052601260045260246000fd5b600061453982613283565b915061454483613283565b925082614554576145536144ff565b5b828204905092915050565b600061456a82613283565b915061457583613283565b925082820390508181111561458d5761458c61448e565b5b92915050565b600061459e82613283565b91506145a983613283565b92508282019050808211156145c1576145c061448e565b5b92915050565b60006040820190506145dc600083018561355b565b6145e9602083018461355b565b9392505050565b7f4552433732313a20696e76616c696420746f6b656e2049440000000000000000600082015250565b60006146266018836133bf565b9150614631826145f0565b602082019050919050565b6000602082019050818103600083015261465581614619565b9050919050565b7f4552433732313a2061646472657373207a65726f206973206e6f74206120766160008201527f6c6964206f776e65720000000000000000000000000000000000000000000000602082015250565b60006146b86029836133bf565b91506146c38261465c565b604082019050919050565b600060208201905081810360008301526146e7816146ab565b9050919050565b60006146f982613283565b91507fffffffffffffffffffffffffffffffffffffffffffffffffffffffffffffffff820361472b5761472a61448e565b5b600182019050919050565b7f4e487b7100000000000000000000000000000000000000000000000000000000600052603260045260246000fd5b7f4f6e6c79206f776e65722063616e206c69737400000000000000000000000000600082015250565b600061479b6013836133bf565b91506147a682614765565b602082019050919050565b600060208201905081810360008301526147ca8161478e565b9050919050565b7f46656520746f6f206869676820286d6178203130252900000000000000000000600082015250565b60006148076016836133bf565b9150614812826147d1565b602082019050919050565b60006020820190508181036000830152614836816147fa565b9050919050565b600081905092915050565b6000614853826133b4565b61485d818561483d565b935061486d8185602086016133d0565b80840191505092915050565b60006148858285614848565b91506148918284614848565b91508190509392505050565b7f4f776e61626c653a206e6577206f776e657220697320746865207a65726f206160008201527f6464726573730000000000000000000000000000000000000000000000000000602082015250565b60006148f96026836133bf565b91506149048261489d565b604082019050919050565b60006020820190508181036000830152614928816148ec565b9050919050565b7f4552433732313a207472616e736665722066726f6d20696e636f72726563742060008201527f6f776e6572000000000000000000000000000000000000000000000000000000602082015250565b600061498b6025836133bf565b91506149968261492f565b604082019050919050565b600060208201905081810360008301526149ba8161497e565b9050919050565b7f4552433732313a207472616e7366657220746f20746865207a65726f2061646460008201527f7265737300000000000000000000000000000000000000000000000000000000602082015250565b6000614a1d6024836133bf565b9150614a28826149c1565b604082019050919050565b60006020820190508181036000830152614a4c81614a10565b9050919050565b7f4552433732313a206d696e7420746f20746865207a65726f2061646472657373600082015250565b6000614a896020836133bf565b9150614a9482614a53565b602082019050919050565b60006020820190508181036000830152614ab881614a7c565b9050919050565b7f4552433732313a20746f6b656e20616c7265616479206d696e74656400000000600082015250565b6000614af5601c836133bf565b9150614b0082614abf565b602082019050919050565b60006020820190508181036000830152614b2481614ae8565b9050919050565b7f45524337323155524953746f726167653a2055524920736574206f66206e6f6e60008201527f6578697374656e7420746f6b656e000000000000000000000000000000000000602082015250565b6000614b87602e836133bf565b9150614b9282614b2b565b604082019050919050565b60006020820190508181036000830152614bb681614b7a565b9050919050565b7f4f776e61626c653a2063616c6c6572206973206e6f7420746865206f776e6572600082015250565b6000614bf36020836133bf565b9150614bfe82614bbd565b602082019050919050565b60006020820190508181036000830152614c2281614be6565b9050919050565b7f5265656e7472616e637947756172643a207265656e7472616e742063616c6c00600082015250565b6000614c5f601f836133bf565b9150614c6a82614c29565b602082019050919050565b60006020820190508181036000830152614c8e81614c52565b9050919050565b7f4552433732313a20617070726f766520746f2063616c6c657200000000000000600082015250565b6000614ccb6019836133bf565b9150614cd682614c95565b602082019050919050565b60006020820190508181036000830152614cfa81614cbe565b9050919050565b7f4552433732313a207472616e7366657220746f206e6f6e20455243373231526560008201527f63656976657220696d706c656d656e7465720000000000000000000000000000602082015250565b6000614d5d6032836133bf565b9150614d6882614d01565b604082019050919050565b60006020820190508181036000830152614d8c81614d50565b9050919050565b600081519050919050565b600082825260208201905092915050565b6000614dba82614d93565b614dc48185614d9e565b9350614dd48185602086016133d0565b614ddd816133fa565b840191505092915050565b6000608082019050614dfd60008301876134c5565b614e0a60208301866134c5565b614e17604083018561355b565b8181036060830152614e298184614daf565b905095945050505050565b600081519050614e4381613325565b92915050565b600060208284031215614e5f57614e5e613279565b5b6000614e6d84828501614e34565b9150509291505056fea264697066735822122022104d6e76f962bfe510bd3add10298f9dbc76d304c5db5a72cec59d115ecb6864736f6c63430008140033",
  "linkReferences": {},
  "deployedLinkReferences": {}
}